{
  "contractName": "ProductRegistry",
  "abi": [
    {
      "anonymous": false,
      "inputs": [
        {
          "indexed": true,
          "internalType": "string",
          "name": "productId",
          "type": "string"
        },
        {
          "indexed": true,
          "internalType": "string",
          "name": "manufacturer",
          "type": "string"
        }
      ],
      "name": "ProductRegistered",
      "type": "event"
    },
    {
      "anonymous": false,
      "inputs": [
        {
          "indexed": true,
          "internalType": "string",
          "name": "productId",
          "type": "string"
        },
        {
          "indexed": true,
          "internalType": "string",
          "name": "from",
          "type": "string"
        },
        {
          "indexed": true,
          "internalType": "string",
          "name": "to",
          "type": "string"
        }
      ],
      "name": "ProductTransferred",
      "type": "event"
    },
    {
      "inputs": [
        {
          "internalType": "string",
          "name": "_productId",
          "type": "string"
        },
        {
          "internalType": "string",
          "name": "_name",
          "type": "string"
        },
        {
          "internalType": "string",
          "name": "_batchNumber",
          "type": "string"
        },
        {
          "internalType": "string",
          "name": "_manufacturingDate",
          "type": "string"
        },
        {
          "internalType": "string",
          "name": "_description",
          "type": "string"
        },
        {
          "internalType": "string",
          "name": "_price",
          "type": "string"
        },
        {
          "internalType": "string",
          "name": "_manufacturer",
          "type": "string"
        },
        {
          "internalType": "string",
          "name": "_currentOwner",
          "type": "string"
        }
      ],
      "name": "registerProduct",
      "outputs": [],
      "stateMutability": "nonpayable",
      "type": "function"
    },
    {
      "inputs": [
        {
          "internalType": "string",
          "name": "_productId",
          "type": "string"
        },
        {
          "internalType": "string",
          "name": "_from",
          "type": "string"
        },
        {
          "internalType": "string",
          "name": "_to",
          "type": "string"
        }
      ],
      "name": "transferProduct",
      "outputs": [],
      "stateMutability": "nonpayable",
      "type": "function"
    },
    {
      "inputs": [
        {
          "internalType": "string",
          "name": "_productId",
          "type": "string"
        }
      ],
      "name": "verifyProduct",
      "outputs": [
        {
          "internalType": "string",
          "name": "manufacturer",
          "type": "string"
        },
        {
          "internalType": "string",
          "name": "currentOwner",
          "type": "string"
        }
      ],
      "stateMutability": "view",
      "type": "function",
      "constant": true
    }
  ],
  "bytecode": "0x608060405234801561001057600080fd5b50611060806100206000396000f3fe608060405234801561001057600080fd5b506004361061005d577c010000000000000000000000000000000000000000000000000000000060003504633e2357e3811461006257806391c69d6e1461007757806392efc4531461008a575b600080fd5b610075610070366004610c2c565b6100b4565b005b610075610085366004610d6c565b6102d5565b61009d610098366004610df4565b6105c6565b6040516100ab929190610e81565b60405180910390f35b6000886040516100c49190610ea6565b9081526040519081900360200190206009015460ff1615610146576040517f08c379a000000000000000000000000000000000000000000000000000000000815260206004820152601a60248201527f50726f6475637420616c7265616479207265676973746572656400000000000060448201526064015b60405180910390fd5b6040518061014001604052808981526020018881526020018781526020018681526020018581526020018481526020018381526020014281526020018281526020016001151581525060008960405161019f9190610ea6565b908152604051908190036020019020815181906101bc9082610f64565b50602082015160018201906101d19082610f64565b50604082015160028201906101e69082610f64565b50606082015160038201906101fb9082610f64565b50608082015160048201906102109082610f64565b5060a082015160058201906102259082610f64565b5060c0820151600682019061023a9082610f64565b5060e08201516007820155610100820151600882019061025a9082610f64565b5061012091909101516009909101805460ff1916911515919091179055604051610285908390610ea6565b60405180910390208860405161029b9190610ea6565b604051908190038120907f05c683c8ef124ed98b107dcf80c644abc011626816b5b3a73e3f6d518c0cd77890600090a35050505050505050565b6000836040516102e59190610ea6565b9081526040519081900360200190206009015460ff16610361576040517f08c379a000000000000000000000000000000000000000000000000000000000815260206004820152601160248201527f50726f64756374206e6f7420666f756e64000000000000000000000000000000604482015260640161013d565b6104146000846040516103749190610ea6565b9081526020016040518091039020600801805461039090610ec2565b80601f01602080910402602001604051908101604052809291908181526020018280546103bc90610ec2565b80156104095780601f106103de57610100808354040283529160200191610409565b820191906000526020600020905b8154815290600101906020018083116103ec57829003601f168201915b505050505083610b42565b61047a576040517f08c379a000000000000000000000000000000000000000000000000000000000815260206004820152601160248201527f4e6f742070726f64756374206f776e6572000000000000000000000000000000604482015260640161013d565b6000808460405161048b9190610ea6565b908152602001604051809103902060080180546104a790610ec2565b80601f01602080910402602001604051908101604052809291908181526020018280546104d390610ec2565b80156105205780601f106104f557610100808354040283529160200191610520565b820191906000526020600020905b81548152906001019060200180831161050357829003601f168201915b50505050509050816000856040516105389190610ea6565b908152602001604051809103902060080190816105559190610f64565b50816040516105649190610ea6565b60405180910390208160405161057a9190610ea6565b6040518091039020856040516105909190610ea6565b604051908190038120907f33f5376dbc072f51018500b41aeaf0244bf439e6c98583ad055c3158d56e6f8e90600090a450505050565b6060806000836040516105d99190610ea6565b9081526040519081900360200190206009015460ff16610655576040517f08c379a000000000000000000000000000000000000000000000000000000000815260206004820152601160248201527f50726f64756374206e6f7420666f756e64000000000000000000000000000000604482015260640161013d565b600080846040516106669190610ea6565b90815260200160405180910390206040518061014001604052908160008201805461069090610ec2565b80601f01602080910402602001604051908101604052809291908181526020018280546106bc90610ec2565b80156107095780601f106106de57610100808354040283529160200191610709565b820191906000526020600020905b8154815290600101906020018083116106ec57829003601f168201915b5050505050815260200160018201805461072290610ec2565b80601f016020809104026020016040519081016040528092919081815260200182805461074e90610ec2565b801561079b5780601f106107705761010080835404028352916020019161079b565b820191906000526020600020905b81548152906001019060200180831161077e57829003601f168201915b505050505081526020016002820180546107b490610ec2565b80601f01602080910402602001604051908101604052809291908181526020018280546107e090610ec2565b801561082d5780601f106108025761010080835404028352916020019161082d565b820191906000526020600020905b81548152906001019060200180831161081057829003601f168201915b5050505050815260200160038201805461084690610ec2565b80601f016020809104026020016040519081016040528092919081815260200182805461087290610ec2565b80156108bf5780601f10610894576101008083540402835291602001916108bf565b820191906000526020600020905b8154815290600101906020018083116108a257829003601f168201915b505050505081526020016004820180546108d890610ec2565b80601f016020809104026020016040519081016040528092919081815260200182805461090490610ec2565b80156109515780601f1061092657610100808354040283529160200191610951565b820191906000526020600020905b81548152906001019060200180831161093457829003601f168201915b5050505050815260200160058201805461096a90610ec2565b80601f016020809104026020016040519081016040528092919081815260200182805461099690610ec2565b80156109e35780601f106109b8576101008083540402835291602001916109e3565b820191906000526020600020905b8154815290600101906020018083116109c657829003601f168201915b505050505081526020016006820180546109fc90610ec2565b80601f0160208091040260200160405190810160405280929190818152602001828054610a2890610ec2565b8015610a755780601f10610a4a57610100808354040283529160200191610a75565b820191906000526020600020905b815481529060010190602001808311610a5857829003601f168201915b5050505050815260200160078201548152602001600882018054610a9890610ec2565b80601f0160208091040260200160405190810160405280929190818152602001828054610ac490610ec2565b8015610b115780601f10610ae657610100808354040283529160200191610b11565b820191906000526020600020905b815481529060010190602001808311610af457829003601f168201915b50505091835250506009919091015460ff16151560209091015260c081015161010090910151909590945092505050565b8051825160009184918491148015610b67575080805190602001208280519060200120145b95945050505050565b7f4e487b7100000000000000000000000000000000000000000000000000000000600052604160045260246000fd5b600082601f830112610bb057600080fd5b813567ffffffffffffffff80821115610bcb57610bcb610b70565b604051601f8301601f19908116603f01168101908282118183101715610bf357610bf3610b70565b81604052838152866020858801011115610c0c57600080fd5b836020870160208301376000602085830101528094505050505092915050565b600080600080600080600080610100898b031215610c4957600080fd5b883567ffffffffffffffff80821115610c6157600080fd5b610c6d8c838d01610b9f565b995060208b0135915080821115610c8357600080fd5b610c8f8c838d01610b9f565b985060408b0135915080821115610ca557600080fd5b610cb18c838d01610b9f565b975060608b0135915080821115610cc757600080fd5b610cd38c838d01610b9f565b965060808b0135915080821115610ce957600080fd5b610cf58c838d01610b9f565b955060a08b0135915080821115610d0b57600080fd5b610d178c838d01610b9f565b945060c08b0135915080821115610d2d57600080fd5b610d398c838d01610b9f565b935060e08b0135915080821115610d4f57600080fd5b50610d5c8b828c01610b9f565b9150509295985092959890939650565b600080600060608486031215610d8157600080fd5b833567ffffffffffffffff80821115610d9957600080fd5b610da587838801610b9f565b94506020860135915080821115610dbb57600080fd5b610dc787838801610b9f565b93506040860135915080821115610ddd57600080fd5b50610dea86828701610b9f565b9150509250925092565b600060208284031215610e0657600080fd5b813567ffffffffffffffff811115610e1d57600080fd5b610e2984828501610b9f565b949350505050565b60005b83811015610e4c578181015183820152602001610e34565b50506000910152565b60008151808452610e6d816020860160208601610e31565b601f01601f19169290920160200192915050565b604081526000610e946040830185610e55565b8281036020840152610b678185610e55565b60008251610eb8818460208701610e31565b9190910192915050565b600281046001821680610ed657607f821691505b602082108103610f0f577f4e487b7100000000000000000000000000000000000000000000000000000000600052602260045260246000fd5b50919050565b601f821115610f5f576000818152602081206020601f86010481016020861015610f3c5750805b6020601f860104820191505b81811015610f5b57828155600101610f48565b5050505b505050565b815167ffffffffffffffff811115610f7e57610f7e610b70565b610f9281610f8c8454610ec2565b84610f15565b602080601f831160018114610fcb5760008415610faf5750858301515b60028086026008870290910a6000190419821617865550610f5b565b600085815260208120601f198616915b82811015610ffa57888601518255948401946001909101908401610fdb565b508582101561101a57878501516008601f88160260020a60001904191681555b505050505060020260010190555056fea26469706673582212206739e2ad84a1e974bed63a4f9a473dad6bfda53daf50c3954edb01e99349564d64736f6c63430008130033",
  "immutableReferences": {},
  "source": "// SPDX-License-Identifier: MIT\r\npragma solidity ^0.8.19;\r\n\r\ncontract ProductRegistry {\r\n  struct Product {\r\n    string productId;\r\n    string name;\r\n    string batchNumber;\r\n    string manufacturingDate;\r\n    string description;\r\n    string price;\r\n    string manufacturer;\r\n    uint256 timestamp;\r\n    string currentOwner;\r\n    bool isRegistered;\r\n  }\r\n\r\n  mapping(string => Product) private products;\r\n\r\n  event ProductRegistered(\r\n    string indexed productId,\r\n    string indexed manufacturer\r\n  );\r\n\r\n  event ProductTransferred(\r\n    string indexed productId,\r\n    string indexed from,\r\n    string indexed to\r\n  );\r\n\r\n  function registerProduct(\r\n    string memory _productId,\r\n    string memory _name,\r\n    string memory _batchNumber,\r\n    string memory _manufacturingDate,\r\n    string memory _description,\r\n    string memory _price,\r\n    string memory _manufacturer,\r\n    string memory _currentOwner\r\n  ) public {\r\n    require(!products[_productId].isRegistered, \"Product already registered\");\r\n\r\n    products[_productId] = Product({\r\n      productId: _productId,\r\n      name: _name,\r\n      batchNumber: _batchNumber,\r\n      manufacturingDate: _manufacturingDate,\r\n      description: _description,\r\n      price: _price,\r\n      timestamp: block.timestamp,\r\n      manufacturer: _manufacturer,\r\n      currentOwner: _currentOwner,\r\n      isRegistered: true\r\n    });\r\n\r\n    emit ProductRegistered(_productId, _manufacturer);\r\n  }\r\n\r\n  function strcmp(string memory a, string memory b) internal pure returns(bool){\r\n    bytes memory bytes_a = bytes(a);\r\n    bytes memory bytes_b = bytes(b);\r\n    return (bytes_a.length == bytes_b.length) && (keccak256(bytes_a) == keccak256(bytes_b));\r\n  }\r\n\r\n  function transferProduct(\r\n    string memory _productId,\r\n    string memory _from,\r\n    string memory _to\r\n  ) public {\r\n    require(products[_productId].isRegistered, \"Product not found\");\r\n    require(strcmp(products[_productId].currentOwner, _from), \"Not product owner\");\r\n\r\n    string memory previousOwner = products[_productId].currentOwner;\r\n    products[_productId].currentOwner = _to;\r\n\r\n    emit ProductTransferred(_productId, previousOwner, _to);\r\n  }\r\n\r\n  function verifyProduct(string memory _productId) public view returns (\r\n    string memory manufacturer, string memory currentOwner\r\n  ) {\r\n    require(products[_productId].isRegistered, \"Product not found\");\r\n\r\n    Product memory product = products[_productId];\r\n    return (product.manufacturer, product.currentOwner);\r\n  }\r\n}\r\n",
  "sourcePath": "H:\\mouhsen\\F\\VS-Code\\Fake Product\\Project\\Blockchain Proj\\project-files\\project source code\\backend\\blockchain\\contracts\\ProductRegistry.sol",
  "compiler": {
    "name": "solc",
    "version": "0.8.19+commit.7dd6d404.Emscripten.clang"
  },
  "schemaVersion": "3.4.16",
  "updatedAt": "2025-05-31T03:41:22.772Z",
  "networkType": "ethereum",
  "devdoc": {
    "kind": "dev",
    "methods": {},
    "version": 1
  },
  "userdoc": {
    "kind": "user",
    "methods": {},
    "version": 1
  },
  "db": {
    "callBytecode": {
      "id": "0x39c1d55ffb47d2abec49f6e96e4f80a6b6cab439f9921129d614192b49dc01cf"
    },
    "createBytecode": {
      "id": "0xa486efa17081d659723f713542b2719b3a747d8b54a1fc7a8b44e393392422c8"
    },
    "contract": {
      "id": "0xf47da57e1dccbe08b1c72b189e0249845fdbde77564360da5d4b321505abbd5f"
    }
  }
}